{
  "contractName": "ICO",
  "abi": [
    {
      "constant": true,
      "inputs": [],
      "name": "rate",
      "outputs": [
        {
          "name": "",
          "type": "uint32"
        }
      ],
      "payable": false,
      "stateMutability": "view",
      "type": "function"
    },
    {
      "constant": true,
      "inputs": [],
      "name": "timeFinished",
      "outputs": [
        {
          "name": "",
          "type": "uint256"
        }
      ],
      "payable": false,
      "stateMutability": "view",
      "type": "function"
    },
    {
      "constant": true,
      "inputs": [],
      "name": "owner",
      "outputs": [
        {
          "name": "",
          "type": "address"
        }
      ],
      "payable": false,
      "stateMutability": "view",
      "type": "function"
    },
    {
      "constant": true,
      "inputs": [],
      "name": "finished",
      "outputs": [
        {
          "name": "",
          "type": "bool"
        }
      ],
      "payable": false,
      "stateMutability": "view",
      "type": "function"
    },
    {
      "constant": true,
      "inputs": [],
      "name": "maxWeth",
      "outputs": [
        {
          "name": "",
          "type": "uint32"
        }
      ],
      "payable": false,
      "stateMutability": "view",
      "type": "function"
    },
    {
      "constant": true,
      "inputs": [
        {
          "name": "",
          "type": "address"
        }
      ],
      "name": "pendingWithdraw",
      "outputs": [
        {
          "name": "",
          "type": "uint32"
        }
      ],
      "payable": false,
      "stateMutability": "view",
      "type": "function"
    },
    {
      "constant": true,
      "inputs": [
        {
          "name": "",
          "type": "address"
        }
      ],
      "name": "deposits",
      "outputs": [
        {
          "name": "",
          "type": "uint32"
        }
      ],
      "payable": false,
      "stateMutability": "view",
      "type": "function"
    },
    {
      "constant": true,
      "inputs": [],
      "name": "totalDeposited",
      "outputs": [
        {
          "name": "",
          "type": "uint32"
        }
      ],
      "payable": false,
      "stateMutability": "view",
      "type": "function"
    },
    {
      "inputs": [
        {
          "name": "tokenAddress",
          "type": "address"
        },
        {
          "name": "wethAddress",
          "type": "address"
        }
      ],
      "payable": false,
      "stateMutability": "nonpayable",
      "type": "constructor"
    },
    {
      "anonymous": false,
      "inputs": [
        {
          "indexed": false,
          "name": "who",
          "type": "address"
        },
        {
          "indexed": false,
          "name": "amount",
          "type": "uint32"
        }
      ],
      "name": "Deposit",
      "type": "event"
    },
    {
      "anonymous": false,
      "inputs": [
        {
          "indexed": false,
          "name": "time",
          "type": "uint256"
        }
      ],
      "name": "Finished",
      "type": "event"
    },
    {
      "anonymous": false,
      "inputs": [
        {
          "indexed": false,
          "name": "who",
          "type": "address"
        },
        {
          "indexed": false,
          "name": "amount",
          "type": "uint32"
        }
      ],
      "name": "Withdraw",
      "type": "event"
    },
    {
      "constant": true,
      "inputs": [
        {
          "name": "amount",
          "type": "uint32"
        }
      ],
      "name": "calculateAllowedAmount",
      "outputs": [
        {
          "name": "allowedAmount",
          "type": "uint32"
        }
      ],
      "payable": false,
      "stateMutability": "view",
      "type": "function"
    },
    {
      "constant": false,
      "inputs": [
        {
          "name": "amount",
          "type": "uint32"
        }
      ],
      "name": "deposit",
      "outputs": [
        {
          "name": "success",
          "type": "bool"
        }
      ],
      "payable": false,
      "stateMutability": "nonpayable",
      "type": "function"
    },
    {
      "constant": false,
      "inputs": [],
      "name": "withdraw",
      "outputs": [
        {
          "name": "success",
          "type": "bool"
        }
      ],
      "payable": false,
      "stateMutability": "nonpayable",
      "type": "function"
    }
  ],
  "bytecode": "0x60806040526103e8600060146101000a81548163ffffffff021916908363ffffffff16021790555060008060186101000a81548163ffffffff021916908363ffffffff160217905550600a6000601c6101000a81548163ffffffff021916908363ffffffff1602179055506000600160006101000a81548160ff02191690831515021790555034801561009157600080fd5b5060405160408061102c833981018060405260408110156100b157600080fd5b81019080805190602001909291908051906020019092919050505080600360006101000a81548173ffffffffffffffffffffffffffffffffffffffff021916908373ffffffffffffffffffffffffffffffffffffffff16021790555081600460006101000a81548173ffffffffffffffffffffffffffffffffffffffff021916908373ffffffffffffffffffffffffffffffffffffffff160217905550336000806101000a81548173ffffffffffffffffffffffffffffffffffffffff021916908373ffffffffffffffffffffffffffffffffffffffff160217905550600460009054906101000a900473ffffffffffffffffffffffffffffffffffffffff1673ffffffffffffffffffffffffffffffffffffffff166340c10f196000809054906101000a900473ffffffffffffffffffffffffffffffffffffffff16600460009054906101000a900473ffffffffffffffffffffffffffffffffffffffff1673ffffffffffffffffffffffffffffffffffffffff1663313ce5676040518163ffffffff1660e01b815260040160206040518083038186803b15801561025657600080fd5b505afa15801561026a573d6000803e3d6000fd5b505050506040513d602081101561028057600080fd5b810190808051906020019092919050505060ff16600a6000601c9054906101000a900463ffffffff16600060149054906101000a900463ffffffff160202186040518363ffffffff1660e01b8152600401808373ffffffffffffffffffffffffffffffffffffffff1673ffffffffffffffffffffffffffffffffffffffff1681526020018263ffffffff16815260200192505050602060405180830381600087803b15801561032e57600080fd5b505af1158015610342573d6000803e3d6000fd5b505050506040513d602081101561035857600080fd5b8101908080519060200190929190505050505050610cb18061037b6000396000f3fe608060405234801561001057600080fd5b50600436106100a95760003560e01c8063bef4876b11610071578063bef4876b146101ae578063d8a3cd05146101d0578063f308cfca146101fa578063fc7e286d1461025e578063fddc7406146102c2578063ff50abdc14610316576100a9565b80632c4e722e146100ae57806339cdfaf2146100d85780633ccfd60b146100f65780638da5cb5b14610118578063b7e8bc9914610162575b600080fd5b6100b6610340565b604051808263ffffffff1663ffffffff16815260200191505060405180910390f35b6100e0610356565b6040518082815260200191505060405180910390f35b6100fe61035c565b604051808215151515815260200191505060405180910390f35b6101206106c0565b604051808273ffffffffffffffffffffffffffffffffffffffff1673ffffffffffffffffffffffffffffffffffffffff16815260200191505060405180910390f35b6101946004803603602081101561017857600080fd5b81019080803563ffffffff1690602001909291905050506106e5565b604051808215151515815260200191505060405180910390f35b6101b6610b84565b604051808215151515815260200191505060405180910390f35b6101d8610b97565b604051808263ffffffff1663ffffffff16815260200191505060405180910390f35b61023c6004803603602081101561021057600080fd5b81019080803573ffffffffffffffffffffffffffffffffffffffff169060200190929190505050610bad565b604051808263ffffffff1663ffffffff16815260200191505060405180910390f35b6102a06004803603602081101561027457600080fd5b81019080803573ffffffffffffffffffffffffffffffffffffffff169060200190929190505050610bd0565b604051808263ffffffff1663ffffffff16815260200191505060405180910390f35b6102f4600480360360208110156102d857600080fd5b81019080803563ffffffff169060200190929190505050610bf3565b604051808263ffffffff1663ffffffff16815260200191505060405180910390f35b61031e610c6f565b604051808263ffffffff1663ffffffff16815260200191505060405180910390f35b6000601c9054906101000a900463ffffffff1681565b60025481565b600060784201600254106103d8576040517f08c379a00000000000000000000000000000000000000000000000000000000081526004018080602001828103825260198152602001807f4e6f742074696d6520666f72207768697464726177207965740000000000000081525060200191505060405180910390fd5b6000600660003373ffffffffffffffffffffffffffffffffffffffff1673ffffffffffffffffffffffffffffffffffffffff16815260200190815260200160002060009054906101000a900463ffffffff1663ffffffff16116104a3576040517f08c379a000000000000000000000000000000000000000000000000000000000815260040180806020018281038252601d8152602001807f4e6f7468696e6720617661696c61626c6520746f20776974686472617700000081525060200191505060405180910390fd5b6000600660003373ffffffffffffffffffffffffffffffffffffffff1673ffffffffffffffffffffffffffffffffffffffff16815260200190815260200160002060009054906101000a900463ffffffff1690506000600660003373ffffffffffffffffffffffffffffffffffffffff1673ffffffffffffffffffffffffffffffffffffffff16815260200190815260200160002060006101000a81548163ffffffff021916908363ffffffff160217905550600460009054906101000a900473ffffffffffffffffffffffffffffffffffffffff1673ffffffffffffffffffffffffffffffffffffffff1663a9059cbb33836040518363ffffffff1660e01b8152600401808373ffffffffffffffffffffffffffffffffffffffff1673ffffffffffffffffffffffffffffffffffffffff1681526020018263ffffffff16815260200192505050602060405180830381600087803b15801561060557600080fd5b505af1158015610619573d6000803e3d6000fd5b505050506040513d602081101561062f57600080fd5b8101908080519060200190929190505050507f8a7e415f5cd081169cfb480b29f7c50456c9794a6fe7ee21dc93ef147c14b8753382604051808373ffffffffffffffffffffffffffffffffffffffff1673ffffffffffffffffffffffffffffffffffffffff1681526020018263ffffffff1663ffffffff1681526020019250505060405180910390a1600191505090565b6000809054906101000a900473ffffffffffffffffffffffffffffffffffffffff1681565b6000600160009054906101000a900460ff161561076a576040517f08c379a00000000000000000000000000000000000000000000000000000000081526004018080602001828103825260108152602001807f49434f20697320636f6d706c657465640000000000000000000000000000000081525060200191505060405180910390fd5b6012600060149054906101000a900463ffffffff161863ffffffff16600060189054906101000a900463ffffffff1663ffffffff1610610812576040517f08c379a000000000000000000000000000000000000000000000000000000000815260040180806020018281038252601c8152602001807f4e6f206c6f6e67657220616363657074696e67206465706f736974730000000081525060200191505060405180910390fd5b600061081d83610bf3565b9050600360009054906101000a900473ffffffffffffffffffffffffffffffffffffffff1673ffffffffffffffffffffffffffffffffffffffff166323b872dd3330846040518463ffffffff1660e01b8152600401808473ffffffffffffffffffffffffffffffffffffffff1673ffffffffffffffffffffffffffffffffffffffff1681526020018373ffffffffffffffffffffffffffffffffffffffff1673ffffffffffffffffffffffffffffffffffffffff1681526020018263ffffffff1681526020019350505050602060405180830381600087803b15801561090257600080fd5b505af1158015610916573d6000803e3d6000fd5b505050506040513d602081101561092c57600080fd5b81019080805190602001909291905050505080600560003373ffffffffffffffffffffffffffffffffffffffff1673ffffffffffffffffffffffffffffffffffffffff16815260200190815260200160002060008282829054906101000a900463ffffffff160192506101000a81548163ffffffff021916908363ffffffff1602179055506000601c9054906101000a900463ffffffff168102600660003373ffffffffffffffffffffffffffffffffffffffff1673ffffffffffffffffffffffffffffffffffffffff16815260200190815260200160002060008282829054906101000a900463ffffffff160192506101000a81548163ffffffff021916908363ffffffff16021790555080600060188282829054906101000a900463ffffffff160192506101000a81548163ffffffff021916908363ffffffff1602179055507f1b474e6e44effbd120d6c841e7e6bac2b6a58b34945d7bdc2f313c768f7950703382604051808373ffffffffffffffffffffffffffffffffffffffff1673ffffffffffffffffffffffffffffffffffffffff1681526020018263ffffffff1663ffffffff1681526020019250505060405180910390a16012600060149054906101000a900463ffffffff161863ffffffff16600060189054906101000a900463ffffffff1663ffffffff1610610b7a5760018060006101000a81548160ff021916908315150217905550426002819055507f86954ecc0ae072157fcf7f87a425a1461295a4cc9cc3122d2efc73bf32d98e1a6002546040518082815260200191505060405180910390a15b6001915050919050565b600160009054906101000a900460ff1681565b600060149054906101000a900463ffffffff1681565b60066020528060005260406000206000915054906101000a900463ffffffff1681565b60056020528060005260406000206000915054906101000a900463ffffffff1681565b60006012600060149054906101000a900463ffffffff161863ffffffff1682600060189054906101000a900463ffffffff160163ffffffff161115610c6357600060189054906101000a900463ffffffff16601203600060149054906101000a900463ffffffff16189050610c67565b8190505b809050919050565b600060189054906101000a900463ffffffff168156fea165627a7a723058206aaf46f2b9b0e043feb3bd0b43b8112bd24c025087754c64ee3284285e30666b0029",
  "source": "pragma solidity ^0.5.0;\n\nimport \"canonical-weth/contracts/WETH9.sol\";\nimport './LABC.sol';\n\ncontract ICO {\n\n    address public owner;\n    uint32 public maxWeth = 1000;\n    uint32 public totalDeposited = 0;\n    uint32 public rate = 10;\n    bool public finished = false;\n    uint public timeFinished;\n    WETH9 Weth;\n    LABC Labc;\n    mapping (address => uint32) public deposits;\n    mapping (address => uint32) public pendingWithdraw;\n\n    event Deposit(address who, uint32 amount);\n    event Finished(uint time);\n    event Withdraw(address who, uint32 amount);\n\n    constructor(address tokenAddress, address payable wethAddress) public {\n        Weth = WETH9(wethAddress);\n        Labc = LABC(tokenAddress);\n        owner = msg.sender;\n\n        // Labc owner must be == msg.sender;\n        Labc.mint(owner, maxWeth * rate * 10 ^ Labc.decimals());\n    }\n\n    function calculateAllowedAmount(uint32 amount) public view returns (uint32 allowedAmount) {\n        // uint32 allowedAmount = 0;\n        if (totalDeposited + amount > maxWeth ^ 18) {\n            allowedAmount = maxWeth ^ 18 - totalDeposited;\n        } else {\n            allowedAmount = amount;\n        }\n        return allowedAmount;\n    }\n\n    function deposit(uint32 amount) public returns (bool success) {\n        require(!finished, 'ICO is completed');\n        require(totalDeposited < maxWeth ^ 18, 'No longer accepting deposits');\n\n        uint32 allowedAmount = calculateAllowedAmount(amount);\n\n        Weth.transferFrom(msg.sender, address(this), allowedAmount);\n        \n        deposits[msg.sender] += allowedAmount;\n        pendingWithdraw[msg.sender] += allowedAmount * rate;\n        totalDeposited += allowedAmount;\n\n        emit Deposit(msg.sender, allowedAmount);\n\n        if (totalDeposited >= maxWeth ^ 18) {\n            finished = true;\n            timeFinished = now;\n\n            emit Finished(timeFinished);\n        }\n\n        return true;\n    }\n\n    function withdraw() public returns (bool success) {\n        require(timeFinished < now + 2 minutes, 'Not time for whitdraw yet');\n        require(pendingWithdraw[msg.sender] > 0, 'Nothing available to withdraw');\n\n        uint32 amount = pendingWithdraw[msg.sender];\n        pendingWithdraw[msg.sender] = 0;\n        Labc.transfer(msg.sender, amount);\n\n        emit Withdraw(msg.sender, amount);\n\n        return true;\n    }\n}",
  "sourcePath": "/home/alfeto/work/tutorials/LABC/contracts/ICO.sol",
  "compiler": {
    "name": "solc",
    "version": "0.5.8+commit.23d335f2.Emscripten.clang"
  },
  "schemaVersion": "3.0.15",
  "updatedAt": "2019-09-18T15:37:38.282Z",
  "devdoc": {
    "methods": {}
  },
  "userdoc": {
    "methods": {}
  }
}