{
  "contractName": "ICO",
  "abi": [
    {
      "constant": true,
      "inputs": [],
      "name": "rate",
      "outputs": [
        {
          "name": "",
          "type": "uint256"
        }
      ],
      "payable": false,
      "stateMutability": "view",
      "type": "function"
    },
    {
      "constant": true,
      "inputs": [],
      "name": "timeFinished",
      "outputs": [
        {
          "name": "",
          "type": "uint256"
        }
      ],
      "payable": false,
      "stateMutability": "view",
      "type": "function"
    },
    {
      "constant": true,
      "inputs": [],
      "name": "owner",
      "outputs": [
        {
          "name": "",
          "type": "address"
        }
      ],
      "payable": false,
      "stateMutability": "view",
      "type": "function"
    },
    {
      "constant": true,
      "inputs": [],
      "name": "finished",
      "outputs": [
        {
          "name": "",
          "type": "bool"
        }
      ],
      "payable": false,
      "stateMutability": "view",
      "type": "function"
    },
    {
      "constant": true,
      "inputs": [],
      "name": "maxWeth",
      "outputs": [
        {
          "name": "",
          "type": "uint256"
        }
      ],
      "payable": false,
      "stateMutability": "view",
      "type": "function"
    },
    {
      "constant": true,
      "inputs": [
        {
          "name": "",
          "type": "address"
        }
      ],
      "name": "pendingWithdraw",
      "outputs": [
        {
          "name": "",
          "type": "uint256"
        }
      ],
      "payable": false,
      "stateMutability": "view",
      "type": "function"
    },
    {
      "constant": true,
      "inputs": [
        {
          "name": "",
          "type": "address"
        }
      ],
      "name": "deposits",
      "outputs": [
        {
          "name": "",
          "type": "uint256"
        }
      ],
      "payable": false,
      "stateMutability": "view",
      "type": "function"
    },
    {
      "constant": true,
      "inputs": [],
      "name": "totalDeposited",
      "outputs": [
        {
          "name": "",
          "type": "uint256"
        }
      ],
      "payable": false,
      "stateMutability": "view",
      "type": "function"
    },
    {
      "inputs": [
        {
          "name": "tokenAddress",
          "type": "address"
        },
        {
          "name": "wethAddress",
          "type": "address"
        }
      ],
      "payable": false,
      "stateMutability": "nonpayable",
      "type": "constructor"
    },
    {
      "anonymous": false,
      "inputs": [
        {
          "indexed": false,
          "name": "who",
          "type": "address"
        },
        {
          "indexed": false,
          "name": "amount",
          "type": "uint256"
        }
      ],
      "name": "Deposit",
      "type": "event"
    },
    {
      "anonymous": false,
      "inputs": [
        {
          "indexed": false,
          "name": "time",
          "type": "uint256"
        }
      ],
      "name": "Finished",
      "type": "event"
    },
    {
      "anonymous": false,
      "inputs": [
        {
          "indexed": false,
          "name": "who",
          "type": "address"
        },
        {
          "indexed": false,
          "name": "amount",
          "type": "uint256"
        }
      ],
      "name": "Withdraw",
      "type": "event"
    },
    {
      "constant": true,
      "inputs": [
        {
          "name": "amount",
          "type": "uint256"
        }
      ],
      "name": "calculateAllowedAmount",
      "outputs": [
        {
          "name": "allowedAmount",
          "type": "uint256"
        }
      ],
      "payable": false,
      "stateMutability": "view",
      "type": "function"
    },
    {
      "constant": false,
      "inputs": [
        {
          "name": "amount",
          "type": "uint256"
        }
      ],
      "name": "deposit",
      "outputs": [
        {
          "name": "success",
          "type": "bool"
        }
      ],
      "payable": false,
      "stateMutability": "nonpayable",
      "type": "function"
    },
    {
      "constant": false,
      "inputs": [],
      "name": "withdraw",
      "outputs": [
        {
          "name": "success",
          "type": "bool"
        }
      ],
      "payable": false,
      "stateMutability": "nonpayable",
      "type": "function"
    }
  ],
  "bytecode": "0x6080604052683635c9adc5dea000006001556000600255600a6003556000600460006101000a81548160ff02191690831515021790555034801561004257600080fd5b50604051604080610c4a8339810180604052604081101561006257600080fd5b81019080805190602001909291908051906020019092919050505080600660006101000a81548173ffffffffffffffffffffffffffffffffffffffff021916908373ffffffffffffffffffffffffffffffffffffffff16021790555081600760006101000a81548173ffffffffffffffffffffffffffffffffffffffff021916908373ffffffffffffffffffffffffffffffffffffffff160217905550336000806101000a81548173ffffffffffffffffffffffffffffffffffffffff021916908373ffffffffffffffffffffffffffffffffffffffff1602179055505050610afa806101506000396000f3fe608060405234801561001057600080fd5b50600436106100a95760003560e01c8063b6b55f2511610071578063b6b55f2514610198578063bef4876b146101de578063d8a3cd0514610200578063f308cfca1461021e578063fc7e286d14610276578063ff50abdc146102ce576100a9565b80632c4e722e146100ae57806339cdfaf2146100cc5780633ccfd60b146100ea5780637a26683c1461010c5780638da5cb5b1461014e575b600080fd5b6100b66102ec565b6040518082815260200191505060405180910390f35b6100d46102f2565b6040518082815260200191505060405180910390f35b6100f26102f8565b604051808215151515815260200191505060405180910390f35b6101386004803603602081101561012257600080fd5b810190808035906020019092919050505061060a565b6040518082815260200191505060405180910390f35b610156610634565b604051808273ffffffffffffffffffffffffffffffffffffffff1673ffffffffffffffffffffffffffffffffffffffff16815260200191505060405180910390f35b6101c4600480360360208110156101ae57600080fd5b8101908080359060200190929190505050610659565b604051808215151515815260200191505060405180910390f35b6101e6610a5b565b604051808215151515815260200191505060405180910390f35b610208610a6e565b6040518082815260200191505060405180910390f35b6102606004803603602081101561023457600080fd5b81019080803573ffffffffffffffffffffffffffffffffffffffff169060200190929190505050610a74565b6040518082815260200191505060405180910390f35b6102b86004803603602081101561028c57600080fd5b81019080803573ffffffffffffffffffffffffffffffffffffffff169060200190929190505050610a8c565b6040518082815260200191505060405180910390f35b6102d6610aa4565b6040518082815260200191505060405180910390f35b60035481565b60055481565b60006078420160055410610374576040517f08c379a00000000000000000000000000000000000000000000000000000000081526004018080602001828103825260198152602001807f4e6f742074696d6520666f72207768697464726177207965740000000000000081525060200191505060405180910390fd5b6000600960003373ffffffffffffffffffffffffffffffffffffffff1673ffffffffffffffffffffffffffffffffffffffff1681526020019081526020016000205411610429576040517f08c379a000000000000000000000000000000000000000000000000000000000815260040180806020018281038252601d8152602001807f4e6f7468696e6720617661696c61626c6520746f20776974686472617700000081525060200191505060405180910390fd5b6000600960003373ffffffffffffffffffffffffffffffffffffffff1673ffffffffffffffffffffffffffffffffffffffff1681526020019081526020016000205490506000600960003373ffffffffffffffffffffffffffffffffffffffff1673ffffffffffffffffffffffffffffffffffffffff16815260200190815260200160002081905550600760009054906101000a900473ffffffffffffffffffffffffffffffffffffffff1673ffffffffffffffffffffffffffffffffffffffff1663a9059cbb33836040518363ffffffff1660e01b8152600401808373ffffffffffffffffffffffffffffffffffffffff1673ffffffffffffffffffffffffffffffffffffffff16815260200182815260200192505050602060405180830381600087803b15801561055b57600080fd5b505af115801561056f573d6000803e3d6000fd5b505050506040513d602081101561058557600080fd5b8101908080519060200190929190505050507f884edad9ce6fa2440d8a54cc123490eb96d2768479d49ff9c7366125a94243643382604051808373ffffffffffffffffffffffffffffffffffffffff1673ffffffffffffffffffffffffffffffffffffffff1681526020018281526020019250505060405180910390a1600191505090565b6000600154826002540111156106285760025460015403905061062c565b8190505b809050919050565b6000809054906101000a900473ffffffffffffffffffffffffffffffffffffffff1681565b6000600460009054906101000a900460ff16156106de576040517f08c379a00000000000000000000000000000000000000000000000000000000081526004018080602001828103825260108152602001807f49434f20697320636f6d706c657465640000000000000000000000000000000081525060200191505060405180910390fd5b60015460025410610757576040517f08c379a000000000000000000000000000000000000000000000000000000000815260040180806020018281038252601c8152602001807f4e6f206c6f6e67657220616363657074696e67206465706f736974730000000081525060200191505060405180910390fd5b60006107628361060a565b9050600660009054906101000a900473ffffffffffffffffffffffffffffffffffffffff1673ffffffffffffffffffffffffffffffffffffffff166323b872dd3330846040518463ffffffff1660e01b8152600401808473ffffffffffffffffffffffffffffffffffffffff1673ffffffffffffffffffffffffffffffffffffffff1681526020018373ffffffffffffffffffffffffffffffffffffffff1673ffffffffffffffffffffffffffffffffffffffff1681526020018281526020019350505050602060405180830381600087803b15801561084157600080fd5b505af1158015610855573d6000803e3d6000fd5b505050506040513d602081101561086b57600080fd5b81019080805190602001909291905050506108d1576040517f08c379a0000000000000000000000000000000000000000000000000000000008152600401808060200182810382526024815260200180610aab6024913960400191505060405180910390fd5b80600860003373ffffffffffffffffffffffffffffffffffffffff1673ffffffffffffffffffffffffffffffffffffffff168152602001908152602001600020600082825401925050819055506003548102600960003373ffffffffffffffffffffffffffffffffffffffff1673ffffffffffffffffffffffffffffffffffffffff16815260200190815260200160002060008282540192505081905550806002600082825401925050819055507fe1fffcc4923d04b559f4d29a8bfc6cda04eb5b0d3c460751c2402c5c5cc9109c3382604051808373ffffffffffffffffffffffffffffffffffffffff1673ffffffffffffffffffffffffffffffffffffffff1681526020018281526020019250505060405180910390a160015460025410610a51576001600460006101000a81548160ff021916908315150217905550426005819055507f86954ecc0ae072157fcf7f87a425a1461295a4cc9cc3122d2efc73bf32d98e1a6005546040518082815260200191505060405180910390a15b6001915050919050565b600460009054906101000a900460ff1681565b60015481565b60096020528060005260406000206000915090505481565b60086020528060005260406000206000915090505481565b6002548156fe4e6f7420616c6c6f77656420746f207472616e7366657220656e6f7567682066756e6473a165627a7a723058208fd81a675ddfc3fd86ea52d0892b75d92196e820e9e1db8aa479a87071bc0b240029",
  "source": "pragma solidity ^0.5.0;\n\nimport \"canonical-weth/contracts/WETH9.sol\";\nimport './LABC.sol';\n\ncontract ICO {\n\n    address public owner;\n    uint256 public maxWeth = 1000e18;\n    uint256 public totalDeposited = 0;\n    uint256 public rate = 10;\n    bool public finished = false;\n    uint public timeFinished;\n    WETH9 Weth;\n    LABC Labc;\n    mapping (address => uint256) public deposits;\n    mapping (address => uint256) public pendingWithdraw;\n\n    event Deposit(address who, uint256 amount);\n    event Finished(uint time);\n    event Withdraw(address who, uint256 amount);\n\n    constructor(address tokenAddress, address payable wethAddress) public {\n        Weth = WETH9(wethAddress);\n        Labc = LABC(tokenAddress);\n        owner = msg.sender;\n    }\n\n    function calculateAllowedAmount(uint256 amount) public view returns (uint256 allowedAmount) {\n        if (totalDeposited + amount > maxWeth) {\n            allowedAmount = maxWeth - totalDeposited;\n        } else {\n            allowedAmount = amount;\n        }\n        return allowedAmount;\n    }\n\n    function deposit(uint256 amount) public returns (bool success) {\n        require(!finished, 'ICO is completed');\n        require(totalDeposited < maxWeth, 'No longer accepting deposits');\n\n        uint256 allowedAmount = calculateAllowedAmount(amount);\n\n        require(Weth.transferFrom(msg.sender, address(this), allowedAmount), \n                'Not allowed to transfer enough funds');\n        \n        deposits[msg.sender] += allowedAmount;\n        pendingWithdraw[msg.sender] += allowedAmount * rate;\n        totalDeposited += allowedAmount;\n\n        emit Deposit(msg.sender, allowedAmount);\n\n        if (totalDeposited >= maxWeth) {\n            finished = true;\n            timeFinished = now;\n\n            emit Finished(timeFinished);\n        }\n\n        return true;\n    }\n\n    function withdraw() public returns (bool success) {\n        require(timeFinished < now + 2 minutes, 'Not time for whitdraw yet');\n        require(pendingWithdraw[msg.sender] > 0, 'Nothing available to withdraw');\n\n        uint256 amount = pendingWithdraw[msg.sender];\n        pendingWithdraw[msg.sender] = 0;\n        Labc.transfer(msg.sender, amount);\n\n        emit Withdraw(msg.sender, amount);\n\n        return true;\n    }\n}",
  "sourcePath": "/home/alfeto/work/tutorials/LABC/contracts/ICO.sol",
  "compiler": {
    "name": "solc",
    "version": "0.5.8+commit.23d335f2.Emscripten.clang"
  },
  "schemaVersion": "3.0.15",
  "updatedAt": "2019-09-19T06:56:42.538Z",
  "devdoc": {
    "methods": {}
  },
  "userdoc": {
    "methods": {}
  }
}